{
  "address": "0x181007058Aa913FC488E9881cEacE74766ccaa78",
  "abi": [
    {
      "inputs": [
        {
          "internalType": "address",
          "name": "token",
          "type": "address"
        }
      ],
      "stateMutability": "nonpayable",
      "type": "constructor"
    },
    {
      "anonymous": false,
      "inputs": [
        {
          "indexed": true,
          "internalType": "address",
          "name": "previousOwner",
          "type": "address"
        },
        {
          "indexed": true,
          "internalType": "address",
          "name": "newOwner",
          "type": "address"
        }
      ],
      "name": "OwnershipTransferred",
      "type": "event"
    },
    {
      "anonymous": false,
      "inputs": [
        {
          "indexed": true,
          "internalType": "address",
          "name": "user",
          "type": "address"
        },
        {
          "indexed": false,
          "internalType": "uint256",
          "name": "amount",
          "type": "uint256"
        }
      ],
      "name": "TokenPurchased",
      "type": "event"
    },
    {
      "inputs": [],
      "name": "ROUND_FUND",
      "outputs": [
        {
          "internalType": "uint256",
          "name": "",
          "type": "uint256"
        }
      ],
      "stateMutability": "view",
      "type": "function"
    },
    {
      "inputs": [],
      "name": "TokenAddress",
      "outputs": [
        {
          "internalType": "address",
          "name": "",
          "type": "address"
        }
      ],
      "stateMutability": "view",
      "type": "function"
    },
    {
      "inputs": [],
      "name": "availableTreasury",
      "outputs": [
        {
          "internalType": "uint256",
          "name": "",
          "type": "uint256"
        }
      ],
      "stateMutability": "view",
      "type": "function"
    },
    {
      "inputs": [],
      "name": "checkIfActive",
      "outputs": [
        {
          "internalType": "bool",
          "name": "",
          "type": "bool"
        }
      ],
      "stateMutability": "nonpayable",
      "type": "function"
    },
    {
      "inputs": [],
      "name": "isActive",
      "outputs": [
        {
          "internalType": "bool",
          "name": "",
          "type": "bool"
        }
      ],
      "stateMutability": "view",
      "type": "function"
    },
    {
      "inputs": [
        {
          "internalType": "uint256",
          "name": "_amount",
          "type": "uint256"
        },
        {
          "internalType": "address",
          "name": "_to",
          "type": "address"
        }
      ],
      "name": "issueTokens",
      "outputs": [],
      "stateMutability": "nonpayable",
      "type": "function"
    },
    {
      "inputs": [],
      "name": "owner",
      "outputs": [
        {
          "internalType": "address",
          "name": "",
          "type": "address"
        }
      ],
      "stateMutability": "view",
      "type": "function"
    },
    {
      "inputs": [],
      "name": "renounceOwnership",
      "outputs": [],
      "stateMutability": "nonpayable",
      "type": "function"
    },
    {
      "inputs": [
        {
          "internalType": "address",
          "name": "newOwner",
          "type": "address"
        }
      ],
      "name": "transferOwnership",
      "outputs": [],
      "stateMutability": "nonpayable",
      "type": "function"
    },
    {
      "inputs": [
        {
          "internalType": "address",
          "name": "_reciever",
          "type": "address"
        }
      ],
      "name": "withdrawRemainingToken",
      "outputs": [],
      "stateMutability": "nonpayable",
      "type": "function"
    }
  ],
  "transactionHash": "0x243782facfb3d7387d32470f07a69afb980771108ad3b3b23f44639fcb2087e7",
  "args": [
    "0xCf3Bb6AC0f6D987a5727e2d15e39c2D6061D5beC"
  ],
  "solcInputHash": "e654e7c1633bfbd357b15af51df5e318",
  "bytecode": "0x60806040526a52b7d2dcc80cd2e400000060035534801561001f57600080fd5b5060405161078038038061078083398101604081905261003e91610134565b610047336100e4565b600180546001600160a01b0383166001600160a01b0319918216811790925560028054909116821790556040516366b700d760e01b81523060048201526a52b7d2dcc80cd2e400000060248201526366b700d790604401600060405180830381600087803b1580156100b857600080fd5b505af11580156100cc573d6000803e3d6000fd5b50506004805460ff1916600117905550610162915050565b600080546001600160a01b038381166001600160a01b0319831681178455604051919092169283917f8be0079c531659141344cd1fd0a4f28419497f9722a3daafe3b4186f6b6457e09190a35050565b600060208284031215610145578081fd5b81516001600160a01b038116811461015b578182fd5b9392505050565b61060f806101716000396000f3fe608060405234801561001057600080fd5b506004361061009e5760003560e01c8063c23be47f11610066578063c23be47f1461011e578063c2cba30614610131578063cb62803914610144578063e6748c5a1461014c578063f2fde38b1461015e57600080fd5b806322f3e2d4146100a3578063715018a6146100c55780637ad5be88146100cf5780638da5cb5b146100e25780639b5856c914610107575b600080fd5b6004546100b09060ff1681565b60405190151581526020015b60405180910390f35b6100cd610171565b005b6100cd6100dd366004610556565b6101b0565b6000546001600160a01b03165b6040516001600160a01b0390911681526020016100bc565b61011060035481565b6040519081526020016100bc565b6100cd61012c366004610535565b6102f9565b6001546100ef906001600160a01b031681565b6100b06103f6565b6101106a52b7d2dcc80cd2e400000081565b6100cd61016c366004610535565b61042e565b6000546001600160a01b031633146101a45760405162461bcd60e51b815260040161019b90610581565b60405180910390fd5b6101ae60006104c9565b565b816000816003546101c191906105b6565b101561020f5760405162461bcd60e51b815260206004820152601760248201527f4e6f7420656e6f75676820746f6b656e73206c65667421000000000000000000604482015260640161019b565b6000546001600160a01b031633146102395760405162461bcd60e51b815260040161019b90610581565b6002546040516340c10f1960e01b81526001600160a01b03848116600483015260248201869052909116906340c10f1990604401600060405180830381600087803b15801561028757600080fd5b505af115801561029b573d6000803e3d6000fd5b5050505082600360008282546102b191906105b6565b90915550506040518381526001600160a01b038316907f55c18555197c6574627cf460c66073d10aa05d412468800b7b71feeaf82ea92d9060200160405180910390a2505050565b6000546001600160a01b031633146103235760405162461bcd60e51b815260040161019b90610581565b60035415610379576004805460ff1916600117815560405162461bcd60e51b815261019b9101602080825260169082015275526f756e64206973207374696c6c206163746976652160501b604082015260600190565b6004805460ff191681556002546003546040516340c10f1960e01b81526001600160a01b038581169482019490945260248101919091529116906340c10f1990604401600060405180830381600087803b1580156103d657600080fd5b505af11580156103ea573d6000803e3d6000fd5b50506000600355505050565b60006003546000141561040e576004805460ff191690555b60035415610424576004805460ff191660011790555b5060045460ff1690565b6000546001600160a01b031633146104585760405162461bcd60e51b815260040161019b90610581565b6001600160a01b0381166104bd5760405162461bcd60e51b815260206004820152602660248201527f4f776e61626c653a206e6577206f776e657220697320746865207a65726f206160448201526564647265737360d01b606482015260840161019b565b6104c6816104c9565b50565b600080546001600160a01b038381166001600160a01b0319831681178455604051919092169283917f8be0079c531659141344cd1fd0a4f28419497f9722a3daafe3b4186f6b6457e09190a35050565b80356001600160a01b038116811461053057600080fd5b919050565b600060208284031215610546578081fd5b61054f82610519565b9392505050565b60008060408385031215610568578081fd5b8235915061057860208401610519565b90509250929050565b6020808252818101527f4f776e61626c653a2063616c6c6572206973206e6f7420746865206f776e6572604082015260600190565b6000828210156105d457634e487b7160e01b81526011600452602481fd5b50039056fea26469706673582212207752adb7fdfe09ef8832748a6fe65e28807f57cf198b7c38969d3ceb9c90d9ba64736f6c63430008040033",
  "devdoc": {
    "kind": "dev",
    "methods": {
      "owner()": {
        "details": "Returns the address of the current owner."
      },
      "renounceOwnership()": {
        "details": "Leaves the contract without owner. It will not be possible to call `onlyOwner` functions anymore. Can only be called by the current owner. NOTE: Renouncing ownership will leave the contract without an owner, thereby removing any functionality that is only available to the owner."
      },
      "transferOwnership(address)": {
        "details": "Transfers ownership of the contract to a new account (`newOwner`). Can only be called by the current owner."
      }
    },
    "version": 1
  },
  "userdoc": {
    "kind": "user",
    "methods": {},
    "version": 1
  },
  "storageLayout": {
    "storage": [
      {
        "astId": 2182,
        "contract": "contracts/Transfer.sol:RoundTransfer",
        "label": "_owner",
        "offset": 0,
        "slot": "0",
        "type": "t_address"
      },
      {
        "astId": 1044,
        "contract": "contracts/Transfer.sol:RoundTransfer",
        "label": "TokenAddress",
        "offset": 0,
        "slot": "1",
        "type": "t_address"
      },
      {
        "astId": 1047,
        "contract": "contracts/Transfer.sol:RoundTransfer",
        "label": "TOKEN",
        "offset": 0,
        "slot": "2",
        "type": "t_contract(IToken)1781"
      },
      {
        "astId": 1050,
        "contract": "contracts/Transfer.sol:RoundTransfer",
        "label": "availableTreasury",
        "offset": 0,
        "slot": "3",
        "type": "t_uint256"
      },
      {
        "astId": 1052,
        "contract": "contracts/Transfer.sol:RoundTransfer",
        "label": "isActive",
        "offset": 0,
        "slot": "4",
        "type": "t_bool"
      }
    ],
    "types": {
      "t_address": {
        "encoding": "inplace",
        "label": "address",
        "numberOfBytes": "20"
      },
      "t_bool": {
        "encoding": "inplace",
        "label": "bool",
        "numberOfBytes": "1"
      },
      "t_contract(IToken)1781": {
        "encoding": "inplace",
        "label": "contract IToken",
        "numberOfBytes": "20"
      },
      "t_uint256": {
        "encoding": "inplace",
        "label": "uint256",
        "numberOfBytes": "32"
      }
    }
  }
}