{
  "address": "0xB070957A5Dde3967c0dCD70A89470370A39E7e67",
  "abi": [
    {
      "inputs": [
        {
          "internalType": "address",
          "name": "token",
          "type": "address"
        },
        {
          "internalType": "address",
          "name": "usdt",
          "type": "address"
        }
      ],
      "stateMutability": "nonpayable",
      "type": "constructor"
    },
    {
      "anonymous": false,
      "inputs": [
        {
          "indexed": true,
          "internalType": "address",
          "name": "previousOwner",
          "type": "address"
        },
        {
          "indexed": true,
          "internalType": "address",
          "name": "newOwner",
          "type": "address"
        }
      ],
      "name": "OwnershipTransferred",
      "type": "event"
    },
    {
      "anonymous": false,
      "inputs": [
        {
          "indexed": true,
          "internalType": "address",
          "name": "user",
          "type": "address"
        },
        {
          "indexed": false,
          "internalType": "uint256",
          "name": "amount",
          "type": "uint256"
        },
        {
          "indexed": false,
          "internalType": "uint256",
          "name": "claimsLeft",
          "type": "uint256"
        },
        {
          "indexed": false,
          "internalType": "uint256",
          "name": "nextUnlockDate",
          "type": "uint256"
        }
      ],
      "name": "TokenClaimed",
      "type": "event"
    },
    {
      "anonymous": false,
      "inputs": [
        {
          "indexed": true,
          "internalType": "address",
          "name": "user",
          "type": "address"
        },
        {
          "indexed": false,
          "internalType": "uint256",
          "name": "amount",
          "type": "uint256"
        }
      ],
      "name": "TokenPurchased",
      "type": "event"
    },
    {
      "inputs": [],
      "name": "CLAIM_PERCENT",
      "outputs": [
        {
          "internalType": "uint256",
          "name": "",
          "type": "uint256"
        }
      ],
      "stateMutability": "view",
      "type": "function"
    },
    {
      "inputs": [],
      "name": "LOCK_PERIOD",
      "outputs": [
        {
          "internalType": "uint256",
          "name": "",
          "type": "uint256"
        }
      ],
      "stateMutability": "view",
      "type": "function"
    },
    {
      "inputs": [],
      "name": "NUM_CLAIMS",
      "outputs": [
        {
          "internalType": "uint8",
          "name": "",
          "type": "uint8"
        }
      ],
      "stateMutability": "view",
      "type": "function"
    },
    {
      "inputs": [],
      "name": "ROUND_FUND",
      "outputs": [
        {
          "internalType": "uint256",
          "name": "",
          "type": "uint256"
        }
      ],
      "stateMutability": "view",
      "type": "function"
    },
    {
      "inputs": [],
      "name": "TGE",
      "outputs": [
        {
          "internalType": "uint256",
          "name": "",
          "type": "uint256"
        }
      ],
      "stateMutability": "view",
      "type": "function"
    },
    {
      "inputs": [],
      "name": "TokenAddress",
      "outputs": [
        {
          "internalType": "address",
          "name": "",
          "type": "address"
        }
      ],
      "stateMutability": "view",
      "type": "function"
    },
    {
      "inputs": [],
      "name": "availableTreasury",
      "outputs": [
        {
          "internalType": "uint256",
          "name": "",
          "type": "uint256"
        }
      ],
      "stateMutability": "view",
      "type": "function"
    },
    {
      "inputs": [],
      "name": "checkIfActive",
      "outputs": [
        {
          "internalType": "bool",
          "name": "",
          "type": "bool"
        }
      ],
      "stateMutability": "nonpayable",
      "type": "function"
    },
    {
      "inputs": [],
      "name": "claimTokens",
      "outputs": [],
      "stateMutability": "nonpayable",
      "type": "function"
    },
    {
      "inputs": [
        {
          "internalType": "uint256",
          "name": "",
          "type": "uint256"
        }
      ],
      "name": "icoTokenHolders",
      "outputs": [
        {
          "internalType": "address",
          "name": "",
          "type": "address"
        }
      ],
      "stateMutability": "view",
      "type": "function"
    },
    {
      "inputs": [],
      "name": "isActive",
      "outputs": [
        {
          "internalType": "bool",
          "name": "",
          "type": "bool"
        }
      ],
      "stateMutability": "view",
      "type": "function"
    },
    {
      "inputs": [
        {
          "internalType": "uint256",
          "name": "_amount",
          "type": "uint256"
        },
        {
          "internalType": "address",
          "name": "_to",
          "type": "address"
        }
      ],
      "name": "issueTokens",
      "outputs": [],
      "stateMutability": "nonpayable",
      "type": "function"
    },
    {
      "inputs": [],
      "name": "owner",
      "outputs": [
        {
          "internalType": "address",
          "name": "",
          "type": "address"
        }
      ],
      "stateMutability": "view",
      "type": "function"
    },
    {
      "inputs": [],
      "name": "renounceOwnership",
      "outputs": [],
      "stateMutability": "nonpayable",
      "type": "function"
    },
    {
      "inputs": [
        {
          "internalType": "address",
          "name": "newOwner",
          "type": "address"
        }
      ],
      "name": "transferOwnership",
      "outputs": [],
      "stateMutability": "nonpayable",
      "type": "function"
    },
    {
      "inputs": [
        {
          "internalType": "address",
          "name": "",
          "type": "address"
        }
      ],
      "name": "users",
      "outputs": [
        {
          "internalType": "uint256",
          "name": "totalTokenBalance",
          "type": "uint256"
        },
        {
          "internalType": "uint256",
          "name": "tokensToIssue",
          "type": "uint256"
        },
        {
          "internalType": "uint256",
          "name": "liquidBalance",
          "type": "uint256"
        },
        {
          "internalType": "uint256",
          "name": "pendingForClaim",
          "type": "uint256"
        },
        {
          "internalType": "uint256",
          "name": "nextUnlockDate",
          "type": "uint256"
        },
        {
          "internalType": "uint16",
          "name": "numUnlocks",
          "type": "uint16"
        },
        {
          "internalType": "bool",
          "name": "isLocked",
          "type": "bool"
        },
        {
          "internalType": "uint256",
          "name": "initialPayout",
          "type": "uint256"
        },
        {
          "internalType": "bool",
          "name": "hasBought",
          "type": "bool"
        }
      ],
      "stateMutability": "view",
      "type": "function"
    },
    {
      "inputs": [
        {
          "internalType": "address",
          "name": "_reciever",
          "type": "address"
        }
      ],
      "name": "withdrawRemainingToken",
      "outputs": [],
      "stateMutability": "nonpayable",
      "type": "function"
    }
  ],
  "transactionHash": "0x7ae699b7a640b6a9420cc6adf6ae3a74ab09ab6a3e0e4764713eb5c1d14bd0e6",
  "args": [
    "0xCf3Bb6AC0f6D987a5727e2d15e39c2D6061D5beC",
    "0x55d398326f99059fF775485246999027B3197955"
  ],
  "solcInputHash": "e654e7c1633bfbd357b15af51df5e318",
  "bytecode": "0x60806040526a108b2a2c2802909400000060035534801561001f57600080fd5b50604051610eae380380610eae83398101604081905261003e91610151565b610047336100e5565b600180546001600160a01b0384166001600160a01b0319918216811790925560028054909116821790556040516366b700d760e01b81523060048201526a108b2a2c2802909400000060248201526366b700d790604401600060405180830381600087803b1580156100b857600080fd5b505af11580156100cc573d6000803e3d6000fd5b50506004805460ff191660011790555061018392505050565b600080546001600160a01b038381166001600160a01b0319831681178455604051919092169283917f8be0079c531659141344cd1fd0a4f28419497f9722a3daafe3b4186f6b6457e09190a35050565b80516001600160a01b038116811461014c57600080fd5b919050565b60008060408385031215610163578182fd5b61016c83610135565b915061017a60208401610135565b90509250929050565b610d1c806101926000396000f3fe608060405234801561001057600080fd5b506004361061010b5760003560e01c80638867596f116100a2578063c23be47f11610071578063c23be47f1461028f578063c2cba306146102a2578063cb628039146102b5578063e6748c5a146102bd578063f2fde38b146102cf57600080fd5b80638867596f146101bd5780638da5cb5b146101c65780639b5856c9146101d7578063a87430ba146101e057600080fd5b80634d7b31d7116100de5780634d7b31d71461017f5780637061b08d14610188578063715018a6146101a25780637ad5be88146101aa57600080fd5b806315d331d0146101105780631820cabb1461014057806322f3e2d41461015857806348c54b9d14610175575b600080fd5b61012361011e366004610b7e565b6102e2565b6040516001600160a01b0390911681526020015b60405180910390f35b61014a62278d0081565b604051908152602001610137565b6004546101659060ff1681565b6040519015158152602001610137565b61017d61030c565b005b61014a61010e81565b610190602481565b60405160ff9091168152602001610137565b61017d610660565b61017d6101b8366004610b96565b610696565b61014a61011581565b6000546001600160a01b0316610123565b61014a60035481565b6102436101ee366004610b5d565b60056020819052600091825260409091208054600182015460028301546003840154600485015495850154600686015460079096015494969395929491939261ffff82169260ff620100009093048316921689565b60408051998a5260208a0198909852968801959095526060870193909352608086019190915261ffff1660a0850152151560c084015260e0830152151561010082015261012001610137565b61017d61029d366004610b5d565b610764565b600154610123906001600160a01b031681565b610165610861565b61014a6a108b2a2c2802909400000081565b61017d6102dd366004610b5d565b610899565b600681815481106102f257600080fd5b6000918252602090912001546001600160a01b0316905081565b336000908152600560205260409020600301546103645760405162461bcd60e51b81526020600482015260116024820152704e6f7468696e6720746f20636c61696d2160781b60448201526064015b60405180910390fd5b336000908152600560205260409020600401544210156103c65760405162461bcd60e51b815260206004820152601860248201527f546f6b656e7320617265207374696c6c206c6f636b6564210000000000000000604482015260640161035b565b3360008181526005602081905260408220908101805462ff000019169081905590919062010000900460ff16156104345760405162461bcd60e51b8152602060048201526012602482015271546f6b656e7320617265206c6f636b65642160701b604482015260640161035b565b61044060016024610cad565b600583015460ff9190911661ffff909116101561047d5761010e612710836001015461046c9190610c34565b6104769190610c54565b90506104f1565b61048960016024610cad565b600583015461ffff1660ff9190911614156104a9575060038101546104f1565b60405162461bcd60e51b815260206004820152601e60248201527f45766572797468696e6720697320616c726561647920636c61696d6564210000604482015260640161035b565b60058201805462ff00001916620100001790556002546040516340c10f1960e01b81526001600160a01b03858116600483015260248201849052909116906340c10f1990604401600060405180830381600087803b15801561055257600080fd5b505af1158015610566573d6000803e3d6000fd5b505050508082600201600082825461057e9190610c1c565b92505081905550808260030160008282546105999190610c96565b9250508190555062278d008260040160008282546105b79190610c1c565b9091555050600582018054600191906000906105d890849061ffff16610bf6565b82546101009290920a61ffff81810219909316918316021790915560058401546001600160a01b03861692507f0886cb285f2e8c3531fc0ef6a4c365909b5f707ea98b34b5fe6d047c208687a491849161063491166024610c73565b60048601546040805193845261ffff9092166020840152908201526060015b60405180910390a2505050565b6000546001600160a01b0316331461068a5760405162461bcd60e51b815260040161035b90610bc1565b6106946000610934565b565b816000816003546106a79190610c96565b10156106f55760405162461bcd60e51b815260206004820152601760248201527f4e6f7420656e6f75676820746f6b656e73206c65667421000000000000000000604482015260640161035b565b6000546001600160a01b0316331461071f5760405162461bcd60e51b815260040161035b90610bc1565b6107298383610984565b816001600160a01b03167f55c18555197c6574627cf460c66073d10aa05d412468800b7b71feeaf82ea92d8460405161065391815260200190565b6000546001600160a01b0316331461078e5760405162461bcd60e51b815260040161035b90610bc1565b600354156107e4576004805460ff1916600117815560405162461bcd60e51b815261035b9101602080825260169082015275526f756e64206973207374696c6c206163746976652160501b604082015260600190565b6004805460ff191681556002546003546040516340c10f1960e01b81526001600160a01b038581169482019490945260248101919091529116906340c10f1990604401600060405180830381600087803b15801561084157600080fd5b505af1158015610855573d6000803e3d6000fd5b50506000600355505050565b600060035460001415610879576004805460ff191690555b6003541561088f576004805460ff191660011790555b5060045460ff1690565b6000546001600160a01b031633146108c35760405162461bcd60e51b815260040161035b90610bc1565b6001600160a01b0381166109285760405162461bcd60e51b815260206004820152602660248201527f4f776e61626c653a206e6577206f776e657220697320746865207a65726f206160448201526564647265737360d01b606482015260840161035b565b61093181610934565b50565b600080546001600160a01b038381166001600160a01b0319831681178455604051919092169283917f8be0079c531659141344cd1fd0a4f28419497f9722a3daafe3b4186f6b6457e09190a35050565b6001600160a01b03811660009081526005602052604081209042906101156109ae61271087610c34565b6109b89190610c54565b6002546040516340c10f1960e01b81526001600160a01b038781166004830152602482018490529293509116906340c10f1990604401600060405180830381600087803b158015610a0857600080fd5b505af1158015610a1c573d6000803e3d6000fd5b5050505080836006016000828254610a349190610c1c565b9250508190555080836002016000828254610a4f9190610c1c565b90915550610a5f90508186610c96565b836003016000828254610a729190610c1c565b90915550506001830185905560058301805461ffff19169055600783015460ff16610af35760068054600180820183556000929092527ff652222313e28459528d920b65115c16c04f3efc82aaedc97be59f3f377c0d3f0180546001600160a01b0319166001600160a01b03871617905560078401805460ff191690911790555b84836000016000828254610b079190610c1c565b925050819055508460036000828254610b209190610c96565b9091555050506004820155600501805462ff00001916620100001790555050565b80356001600160a01b0381168114610b5857600080fd5b919050565b600060208284031215610b6e578081fd5b610b7782610b41565b9392505050565b600060208284031215610b8f578081fd5b5035919050565b60008060408385031215610ba8578081fd5b82359150610bb860208401610b41565b90509250929050565b6020808252818101527f4f776e61626c653a2063616c6c6572206973206e6f7420746865206f776e6572604082015260600190565b600061ffff808316818516808303821115610c1357610c13610cd0565b01949350505050565b60008219821115610c2f57610c2f610cd0565b500190565b600082610c4f57634e487b7160e01b81526012600452602481fd5b500490565b6000816000190483118215151615610c6e57610c6e610cd0565b500290565b600061ffff83811690831681811015610c8e57610c8e610cd0565b039392505050565b600082821015610ca857610ca8610cd0565b500390565b600060ff821660ff841680821015610cc757610cc7610cd0565b90039392505050565b634e487b7160e01b600052601160045260246000fdfea2646970667358221220d43c89a2d47826e97e6d0e91134e32b6b71fcd843e5a8a3064a18f12e3fa837564736f6c63430008040033",
  "devdoc": {
    "kind": "dev",
    "methods": {
      "owner()": {
        "details": "Returns the address of the current owner."
      },
      "renounceOwnership()": {
        "details": "Leaves the contract without owner. It will not be possible to call `onlyOwner` functions anymore. Can only be called by the current owner. NOTE: Renouncing ownership will leave the contract without an owner, thereby removing any functionality that is only available to the owner."
      },
      "transferOwnership(address)": {
        "details": "Transfers ownership of the contract to a new account (`newOwner`). Can only be called by the current owner."
      }
    },
    "version": 1
  },
  "userdoc": {
    "kind": "user",
    "methods": {},
    "version": 1
  },
  "storageLayout": {
    "storage": [
      {
        "astId": 2182,
        "contract": "contracts/Vesting.sol:RoundVesting",
        "label": "_owner",
        "offset": 0,
        "slot": "0",
        "type": "t_address"
      },
      {
        "astId": 1247,
        "contract": "contracts/Vesting.sol:RoundVesting",
        "label": "TokenAddress",
        "offset": 0,
        "slot": "1",
        "type": "t_address"
      },
      {
        "astId": 1250,
        "contract": "contracts/Vesting.sol:RoundVesting",
        "label": "TOKEN",
        "offset": 0,
        "slot": "2",
        "type": "t_contract(IToken)1781"
      },
      {
        "astId": 1253,
        "contract": "contracts/Vesting.sol:RoundVesting",
        "label": "availableTreasury",
        "offset": 0,
        "slot": "3",
        "type": "t_uint256"
      },
      {
        "astId": 1255,
        "contract": "contracts/Vesting.sol:RoundVesting",
        "label": "isActive",
        "offset": 0,
        "slot": "4",
        "type": "t_bool"
      },
      {
        "astId": 1279,
        "contract": "contracts/Vesting.sol:RoundVesting",
        "label": "users",
        "offset": 0,
        "slot": "5",
        "type": "t_mapping(t_address,t_struct(User)1274_storage)"
      },
      {
        "astId": 1282,
        "contract": "contracts/Vesting.sol:RoundVesting",
        "label": "icoTokenHolders",
        "offset": 0,
        "slot": "6",
        "type": "t_array(t_address)dyn_storage"
      }
    ],
    "types": {
      "t_address": {
        "encoding": "inplace",
        "label": "address",
        "numberOfBytes": "20"
      },
      "t_array(t_address)dyn_storage": {
        "base": "t_address",
        "encoding": "dynamic_array",
        "label": "address[]",
        "numberOfBytes": "32"
      },
      "t_bool": {
        "encoding": "inplace",
        "label": "bool",
        "numberOfBytes": "1"
      },
      "t_contract(IToken)1781": {
        "encoding": "inplace",
        "label": "contract IToken",
        "numberOfBytes": "20"
      },
      "t_mapping(t_address,t_struct(User)1274_storage)": {
        "encoding": "mapping",
        "key": "t_address",
        "label": "mapping(address => struct RoundVesting.User)",
        "numberOfBytes": "32",
        "value": "t_struct(User)1274_storage"
      },
      "t_struct(User)1274_storage": {
        "encoding": "inplace",
        "label": "struct RoundVesting.User",
        "members": [
          {
            "astId": 1257,
            "contract": "contracts/Vesting.sol:RoundVesting",
            "label": "totalTokenBalance",
            "offset": 0,
            "slot": "0",
            "type": "t_uint256"
          },
          {
            "astId": 1259,
            "contract": "contracts/Vesting.sol:RoundVesting",
            "label": "tokensToIssue",
            "offset": 0,
            "slot": "1",
            "type": "t_uint256"
          },
          {
            "astId": 1261,
            "contract": "contracts/Vesting.sol:RoundVesting",
            "label": "liquidBalance",
            "offset": 0,
            "slot": "2",
            "type": "t_uint256"
          },
          {
            "astId": 1263,
            "contract": "contracts/Vesting.sol:RoundVesting",
            "label": "pendingForClaim",
            "offset": 0,
            "slot": "3",
            "type": "t_uint256"
          },
          {
            "astId": 1265,
            "contract": "contracts/Vesting.sol:RoundVesting",
            "label": "nextUnlockDate",
            "offset": 0,
            "slot": "4",
            "type": "t_uint256"
          },
          {
            "astId": 1267,
            "contract": "contracts/Vesting.sol:RoundVesting",
            "label": "numUnlocks",
            "offset": 0,
            "slot": "5",
            "type": "t_uint16"
          },
          {
            "astId": 1269,
            "contract": "contracts/Vesting.sol:RoundVesting",
            "label": "isLocked",
            "offset": 2,
            "slot": "5",
            "type": "t_bool"
          },
          {
            "astId": 1271,
            "contract": "contracts/Vesting.sol:RoundVesting",
            "label": "initialPayout",
            "offset": 0,
            "slot": "6",
            "type": "t_uint256"
          },
          {
            "astId": 1273,
            "contract": "contracts/Vesting.sol:RoundVesting",
            "label": "hasBought",
            "offset": 0,
            "slot": "7",
            "type": "t_bool"
          }
        ],
        "numberOfBytes": "256"
      },
      "t_uint16": {
        "encoding": "inplace",
        "label": "uint16",
        "numberOfBytes": "2"
      },
      "t_uint256": {
        "encoding": "inplace",
        "label": "uint256",
        "numberOfBytes": "32"
      }
    }
  }
}